:020000040040BA
:100000004827402055124000511240005112400034
:1000100051124000511240005112400000000000F7
:10002000000000000000000000000000511240002D
:1000300051124000000000005112400051124000D7
:100040005112400051124000B51640007D1640008C
:100050005112400051124000511240005112400014
:100060005112400000000000B50D4000C90D4000D5
:10007000DD0D40005112400051124000511240006D
:10008000F10D4000050E4000511240005112400099
:1000900051124000511240005112400051124000D4
:1000A0007118400051124000991840005112400050
:1000B00051124000511240005112400051124000B4
:1000C00051124000511240005112400051124000A4
:1000D00000000000511240000000000051124000DA
:1000E0005112400051124000511240005112400084
:1000F000511240005112400051124000C1184000FE
:100100005112400051124000511240005112400063
:10011000511240000000000000000000000000003C
:100120005112400051124000511240005112400043
:1001300051124000000000005112400051124000D6
:1001400010B5054C237833B9044B13B10448AFF311
:1001500000800123237010BD5804402000000000DF
:10016000182A40000C4B43B10C480D4910B5AFF3B1
:1001700000800C48036823B910BD0A48036833B9EE
:100180007047094B002BF7D0BDE810401847064BCD
:10019000002BF5D0184700BF00000000182A4000CF
:1001A0005C044020182A400000000000806970476D
:1001B000C1617047C068704708B5074B984203D0CB
:1001C000064B984204D008BD1520054B984708BD42
:1001D0002A20034B9847F6E7008000400080054046
:1001E000390F4000436823F47023436043680904D7
:1001F00001F4702119434160704730B443F69924EB
:10020000056915F0020F03D1013CF9D101200CE082
:10021000446814F0020F06D0120402F47022114355
:100220000BB141F08071C160002030BC704732B921
:1002300000EB8100036B23F001030363704700EBC5
:100240008100036B43F001030363704732B900EB95
:100250008100036B23F002030363704700EB81000E
:10026000036B43F0020303637047042A03D06AB1AF
:10027000082A16D0704700EB8100036B23F00803B7
:100280000363036B43F004030363704700EB8100D7
:10029000036B23F008030363036B23F0040303637E
:1002A000704700EB8100036B43F008030363E1E751
:1002B00000EB81010B6B23F0F0030B630B6B1A4314
:1002C0000A637047431E1944B1FBF0F0431EFE2B36
:1002D00094BF00B24FF0FF3070477AB110B41446AB
:1002E00000EB81010B6B23F47F430B630A6B42EA43
:1002F00004220A6300205DF8044B70474FF0FF3082
:10030000704710B489014318022444504FF0FF3164
:100310009962196A5A605DF8044B70478901052398
:1003200043507047890102234350704700EB81110D
:10033000CA61704700EB81114A62704700EB81117E
:10034000086A7047F0B486B002240194082402942D
:1003500020240394802404940A9CE40B0594B0EBBD
:10036000510F14D84C0CA04217D2012501AF57F8F9
:100370002540B1FBF4F4260C84420AD386420DD901
:100380000135052DF3D1002006B0F0BC70470020E8
:10039000FAE70020F8E70120F6E700252AB106A9D0
:1003A00001EB850151F8141C1160002BF3D01D6086
:1003B0000120E9E7014B1860704700BF740440203A
:1003C000024B1B6803EBC01042547047740440207A
:1003D000024B1B6803EBC010405C70477404402064
:1003E0002DE9F0478418802C02DDC0F18004E2B2D0
:1003F00022B3CD08A1EBC501012606FA01F1CEB268
:10040000012B1DD0002B35D0022B17D10138C7B2DC
:10041000D419E4B2DFF890A04FF00009DFF88C8027
:1004200021462846D04786EA00024B46D2B22146F2
:100430002846C047013CE4B2BC42F1D1BDE8F08798
:100440000138C7B2D419E4B2DFF85CA04FF000095C
:10045000DFF8588021462846D04746EA00024B463E
:10046000D2B221462846C047013CE4B2BC42F1D199
:10047000BDE8F0870138C7B2D419E4B2DFF82880AC
:10048000CE43DFF8289021462846C04706EA0002FE
:100490000023D2B221462846C847013CE4B2BC4200
:1004A000F1D1BDE8F08700BFE1064000DD05400066
:1004B0002DE9F8439DF820708BB11C469046064606
:1004C0004D1EEDB22C44E4B2DFF818903B46424694
:1004D00021463046C847013CE4B2AC42F6D1BDE803
:1004E000F88300BFE10340002DE9F04F83B00446DC
:1004F000884691469B465B7A9BF808200021009134
:1005000049464046214DA8479BF8003013B103B03F
:10051000BDE8F08F9BF80820D30812F0070F18BF32
:1005200001339BF809A09BF80A70E71B17FB0AF739
:1005300017FB03F7DBF8043013FA87F71FE06400BA
:10054000E4B20135EBB29E4210D9EBB208EB0300E6
:10055000C0B213F0070F08BF17F8014B14F0800F5B
:10056000EDD0012249460A4B9847E8E709F1010915
:100570005FFA89F90AF1FF3A1AF0FF0AC7D09BF82F
:100580000860002EF2D000252C46DEE7B1044000C2
:100590007D0640002DE9F843044690461D468946F5
:1005A0000D4F0E4608E06A7A013242445FFA82F843
:1005B000B14614F8013F6BB120780A28F3D00D281A
:1005C000F7D02B4642464946B8472B7A99445FFA02
:1005D00089F9EEE7BDE8F883E904400070B5044608
:1005E0000D4616461BB90D4B9847B04215D0324602
:1005F000294620460A4B984704F00F0040F0B0000F
:10060000084CA047C5F3021040F01000A04705F0C9
:100610000F00A0473046044B984770BDD1034000FF
:10062000C1034000ED0640000D0940002DE9F041F6
:100630000D480E4B98470E4B984740200D4B98475E
:1006400000254FF001082F460B4E002443463A4642
:10065000E1B22846B0470134802CF7D10135EDB224
:10066000042DF2D1BDE8F08178044020B5034000AC
:100670002D074000ED064000DD054000C3092AD1EA
:100680001F2928D82DE9F04114460546CE08A1EBD4
:10069000C601012202FA01F75FFA87F801463046E7
:1006A0000D4B98470246012C09D064B1022C0ED0A4
:1006B000002329463046094CA047BDE8F08148EAAE
:1006C0000002D2B2F4E720EA0702D2B2F0E788EAE9
:1006D0000002D2B2ECE77047D1034000DD054000D4
:1006E00008B5014B984708BDD103400038B5054611
:1006F0000822094B5A63094C01212046084B9847B0
:1007000001231A4629462046064CA0474FF4FD70A7
:10071000054B984738BD00BF00100E4000800040D8
:10072000E5014000FB014000010040202DE9F843B5
:10073000664D4FF400362E61C5F8A060644B082763
:100740001F61C3F8A0706E66C5F890606E656E623A
:10075000C5F880602A6F22F400322A676A6F22F49B
:1007600000326A675F66C3F890705F655F62C3F8C6
:1007700080701A6F22F008021A675A6F22F008027E
:100780005A671F602E601F632E63DFF87C81002391
:100790004FF480024FF0805140464E4CA04700235A
:1007A0004FF400124FF080514046A04700234FF015
:1007B00000724FF080514046A04700234FF4800262
:1007C0004FF080514046A04700234FF400124FF0F5
:1007D00080514046A04700234FF000724FF08051F7
:1007E0004046A0473C4C4FF00209C4F800904FF03F
:1007F0008008C4F80080636843F0010363603A46F0
:1008000001212046354B9847002201212046344BD8
:100810009847002201212046324B9847636823F015
:10082000020363600022012120462F4B9847636832
:1008300023F080036360636843F0100363602B4917
:100840002B482C4B9847C2B2012120462A4B98478F
:1008500020462A4B9847012323606E6340F6B83048
:10086000274CA0472E6340F6B830A0472E63A8203F
:10087000244CA0471F20A047D320A0470020A0471A
:100880004020A047A120A047C820A047DA20A047C9
:100890004846A0478120A0478F20A047A420A0471A
:1008A000A620A047D520A0474046A0478D20A047BE
:1008B0001420A047DB20A0474020A047D920A04714
:1008C000F120A047AF20A047BDE8F88300120E40FA
:1008D00000100E40190C4000008000406B024000E8
:1008E0002F0240004D024000B102400080D1F008CC
:1008F00080841E00C5024000DB024000B9014000B8
:1009000001004020ED06400000140E4038B50546B9
:100910000822094B1A63094C01212046084B9847CD
:1009200001231A4629462046064CA0474FF4FD7085
:10093000054B984738BD00BF00100E4000800040B6
:10094000E5014000FB0140000100402010B51048C7
:10095000104B98473E2100200F4B98470F4CA04763
:100960000028FCD00E4B98470E4A0F4B9A620F4C52
:10097000A0470028FCD002200D4B984700200D4BCB
:1009800098470D4B98470248024B984710BD00BF4F
:1009900000A3E11129144000B50E4000090F4000EA
:1009A000190F4000013F182000060E40290F40009B
:1009B000190E4000510E40001D134000F8B54FF4D1
:1009C0000042484B5A60BFF34F8FBFF36F8F464BC7
:1009D0000022C3F850225A6942F400325A61BFF330
:1009E0004F8FBFF36F8FD3F88070C7F34E3607F089
:1009F00007000430C7F3C907B7FA87FE0EF01F0ED1
:100A0000BFF34F8F4FF0FF3404FA00FC06FA00F0FA
:100A100004FA0EF407FA0EFE1D463A46734640EA03
:100A20000301C5F86012013A2344B2F1FF3FF6D149
:100A3000013E6044B6F1FF3FEFD1BFF34F8F2A4B29
:100A40005A6942F480325A61BFF34F8FBFF36F8F00
:100A5000264A27495160A1F580715160BFF34F8F3D
:100A6000BFF36F8FD3F8902222F00102C3F89022D7
:100A7000D3F8942222F00102C3F89422BFF34F8FDF
:100A8000BFF36F8F0A201B4CA0470B20A0470C2000
:100A9000A0471020A0471120A047174B4FF48072A9
:100AA0001A61C3F8A0201A63A3F580634FF40062B3
:100AB0005A61C3F8A0205A66C3F890205A651A629A
:100AC000C3F88420196F21F400611967596F21F46C
:100AD00000615967C3F8C020C3F8D420C3F8B02020
:100AE000F8BD00BF50180E4000ED00E0000C0E40B5
:100AF0000C08005A390F400000120E400AB9016676
:100B0000704741667047C0F8841053004FF40042AC
:100B1000B2FBF3F2013AC2F30D02C0F88C20704729
:100B200001637047416370474264B1F1C05F3AD0DE
:100B300013D8B1F1006F25D0B1F1805F0AD1036FF6
:100B400013430367436F416F0B4023EA020343677C
:100B5000426070470029FBD17047B1F1205F21D07E
:100B600009D8B1F1005FF3D1036F13430367436FFB
:100B700013434367ECE7B1F1405F13D0B1F1605F1D
:100B800010D0E5E710B4016F046FD34321401C4639
:100B900019400167436F416F0B4023404367426038
:100BA0005DF8044B7047036F016F0B4023EA0203AB
:100BB0000367436F13434367CAE7416412F0010FB1
:100BC0000DD1016612F00A0F0BD0016212F0020F74
:100BD00009D112F0080F08D0C0F8841005E0416672
:100BE000F0E74162F2E7C0F88010416101607047B0
:100BF00010B4019C41644CB901664BB101654AB91E
:100C00004163016101605DF8044B70474166F4E7A0
:100C10004165F4E70163F4E770B582B00546164616
:100C20001C46B1F1005F14D00AD9B1F1405F24D065
:100C3000B1F1605F21D0B1F1205F17D000201AE040
:100C4000B1F1805F05D0B1F1C05F02D0B1F1006FAA
:100C5000F4D132462846114B984714F0010F02D1C7
:100C60002E66012007E06E66012004E01A46314638
:100C70000B4B9847012002B070BD04F001030093B4
:100C8000C4F38003B1F1605F14BF0022012231463A
:100C90002846044CA0470120EDE700BF290B400087
:100CA000BB0B4000F10B4000836B0B4214BF0120D3
:100CB0000020704712F0100F12D0C0F8B01012F0E0
:100CC000200F07D0C0F8D41012F0400F05D0C0F8A4
:100CD000C0107047C0F8D010F6E7C0F8C4107047D5
:100CE000C0F8B410704701647047C06C7047806CE6
:100CF000704700002DE9F041044688460E4B9847A6
:100D0000054620460D4B9847054013D00C4C04F186
:100D1000600603E0B4420DD010345DB12068404558
:100D2000F8D161682942F5D0E3689847636825EAFD
:100D30000305EFE7BDE8F081EB0C4000EF0C40004D
:100D400078064020F8B5184C2668062E2AD84FF0B1
:100D5000000C6446154F04E00134E4B2A446A642F8
:100D600009D3A64625017D598D42F5D107EB04151F
:100D70006D689542F0D10D4D4FEA0E1E05EB0E0445
:100D800045F80E106260A3600699E1600136664581
:100D900005D011461A46064B98470020F8BD024977
:100DA0000E60F6E70120F8BDE806402078064020F6
:100DB000B50C400008B50A210148024B984708BD10
:100DC000000E0E40F50C400008B50B210148024B07
:100DD000984708BD00100E40F50C400008B50C21E6
:100DE0000148024B984708BD00120E40F50C400028
:100DF00008B510210148024B984708BD00140E4069
:100E0000F50C400008B511210148024B984708BD78
:100E100000160E40F50C4000032811D0042812D013
:100E200002280CBF4FF480710021084A136B23F491
:100E300040730B431363936E13F0080FFBD070479E
:100E40004FF44071F1E74FF40071EEE700060E40F9
:100E5000174A136B23F0700318431063936E13F05B
:100E6000080F0AD14FF4805311498A6E12F0080F0F
:100E700003D1013BF9D1012070470D4A136B23F0D8
:100E8000030343F002031363936E13F0080F0AD1B8
:100E90004FF4805306498A6E12F0080F05D1013BCA
:100EA000F9D101207047002070470020704700BF33
:100EB00000060E40A0B90E48036A090289B20D4A25
:100EC0001A400D4B1343194301620246936E13F00F
:100ED000010FFBD0064A116A084B0B43136270479F
:100EE00003490B6A064A1A40064B13430B627047CC
:100EF00000060E40FCFFC8FF01003700000037016C
:100F0000FCFFC8FE02003701024B986E00F48030EF
:100F1000704700BF00060E404FF00052014B9A622E
:100F2000704700BF00060E40024B986E00F00200B2
:100F3000704700BF00060E403F281ED81F280CD85F
:100F4000114B9A6901238340934318D0012303FA7C
:100F500000F00D4B18610020704720380A4BD3F881
:100F600008210123834093430BD0012303FA00F0AF
:100F7000054BC3F800010020704701207047002096
:100F800070470020704700BF00060E407047000009
:100F9000104A136F23F4C00343F480031367116AEC
:100FA0000D4B0B431362936E13F0080FFBD04FF4FD
:100FB000FA7300BF013BFCD1064A136A13F0080F15
:100FC000FBD0044A136F23F4C00343F48003136778
:100FD000704700BF00060E40040037002DE9F843BB
:100FE000431E042B00F20781DFE813F00500050023
:100FF00015001500F600814A136923F004031361FC
:1010000001227F4B1A70BFF35F8F62B6BFF34F8F21
:1010100030BFBDE8F883044603280CBF00204FF41E
:101020000010784B984772B6BFF35F8F0022744B65
:101030001A700122744B1A70744B1F6A1D6B744A2C
:10104000D2F800809E6A734A3A431A6205F0030997
:10105000B9F1010F40F2898025F0030141F001014F
:1010600019631A46936E13F0080FFBD011F0700F3E
:1010700008D021F07001654B19631A46936E13F086
:10108000080FFBD0644B9847604A936E13F4003FFF
:10109000FBD05E4A116A614B0B4043F45C13136250
:1010A000936E13F4803FFBD028F47063584A1360AA
:1010B000042C5CD0524C01232370BFF35F8F62B6C7
:1010C000574B984772B6BFF35F8F0023237017F01A
:1010D000020F55D04D4A136A52491940524B0B43E7
:1010E0001362116A514B0B4043F45C131362504B73
:1010F0003340002B6ED046F00056444B9E620221D6
:10110000B9F1020F04D1414A936E13F0020FFBD0E4
:101110003E4A136B23F0700305F070000343136322
:10112000936E13F0080FFBD0394BC3F80080A3F582
:10113000C0631D631A46936E13F0080FFBD0334A49
:10114000936E0B42FCD000222F4B1A70394B1B6858
:101150001BB198470022374B1A600122284B1A70A6
:10116000BFF35F8F62B6BDE8F88329467EE7A2F53C
:10117000C062116A304B0B4043F45C13136299E771
:1011800017F0010FB3D0214B1B6A13F0010F0BD1E5
:101190001E490B6A294A1A40294B13430B620A461F
:1011A000936E13F0010FFBD0184B1B6A13F0807F76
:1011B00008D1164A116A234B0B431362936E13F442
:1011C000803FFBD0114A116A184B0B4043F45C136B
:1011D00013628CE7002193E7084A136943F0040384
:1011E0001361194A194B1A600122054B1A70BFF39B
:1011F0005F8F62B630BFBDE8F88300BF00ED00E04E
:10120000180040208D0F4000EC06402000060E40E4
:10121000000C0E4008003700190F4000FFFFC8FE09
:10122000910F4000FCFFC8FE0200370187FFC8FF96
:101230000000FF07F0064020FEFFC8FFFCFFC8FFCC
:101240000100370000003701040000A510180E400F
:10125000FEE7000000B583B0254B264A9A4210D025
:10126000254B234A9A420CD2013B9B1A23F00303DD
:10127000043313441F4951F8040B42F8040B9A42FB
:10128000F9D11E4B1E4A9A420AD2013B9B1A23F007
:10129000030304331344002142F8041B9342FBD19F
:1012A000184A194B23F07F039360EFF31083B3FACE
:1012B00083F35B09019372B6BFF35F8F0022134B78
:1012C0001A700199124A136843F470031360BFF354
:1012D0004F8FBFF36F8F29B101220C4B1A70BFF3F0
:1012E0005F8F62B60B4B98470B4B9847FEE700BFEA
:1012F00000004020182A40005404402048074020A5
:101300005804402000ED00E000004000180040209C
:1013100088ED00E0091E4000E91840003B4B1B6BC4
:1013200003F00303012B1DD083B1022B36D0374BC2
:101330001B6B03F07003702B5FD0344B1A6B344976
:10134000C2F302120B68D3400B607047314B5B69EC
:1013500013F0800F14BF4FF400424FF4FA422C4BAD
:101360001A60E4E7294B1B6A13F0807F03D02A4AF6
:10137000274B1A60DBE7294A254B1A60234B1B6A6F
:1013800003F07003102B05D0202BD0D1224A204B24
:101390001A60CCE7224A1E4B1A60C8E71B4B1B6A37
:1013A00013F0807F16D01C4A194B1A60174B1B6B29
:1013B00003F00303022BBAD1144A916A926A1448CB
:1013C000C1F30A41036801FB0333D2B2B3FBF2F36A
:1013D0000360ACE7114A0E4B1A600C4B1B6A03F01A
:1013E0007003102B05D0202BE0D10B4A084B1A605C
:1013F000DCE70B4A064B1A60D8E7054A136809492F
:10140000A1FB03135B081360704700BF00060E408A
:101410001C00402010180E40001BB70000093D00C2
:1014200000127A00ABAAAAAA164B984213D9164BFF
:10143000984215D9154B984216D9154B984217D991
:10144000144B984218D9144B984294BF134A144A2B
:10145000144B1A6070474FF08062124B1A6070474D
:10146000114A104B1A607047104A0E4B1A607047B1
:101470000F4A0C4B1A6070474FF00422094B1A6058
:10148000704700BFBFF35E017FE7BD023FDB1C0476
:10149000FFCE7B05BFC2DA067FB63908000500041F
:1014A00000060004000C0E400001000400020004CD
:1014B000000300040122014B1A707047F40640201B
:1014C0000122014B1A707047F50640200122014BA2
:1014D0001A707047F60640202DE9F04F83B00A20BD
:1014E0004B4DA84700240094234622460121494839
:1014F000494FB8470C20A847484E0094234622463F
:101500004FF080413046B8470A20A8470094234650
:10151000224604214248B8471020A847414F22469E
:101520004FF080513846DFF818B1D84701224FF00C
:1015300080513846DFF80CA1D0473C224FF0805153
:101540003846DFF80491C8470C20A84722464FF0E0
:1015500000413046D84701224FF000413046D04785
:101560003C224FF000413046C8470A20A847224697
:101570004FF400212748D84701224FF40021254885
:10158000D0473C224FF400212248C847264B009305
:1015900040234FF0805210213846244CA047244B62
:1015A000009370234FF000420C213046A047214B9E
:1015B000009370234FF400220A211648A0474FF0F1
:1015C00080513846DFF88480C04738461A4CA0471F
:1015D0004FF000413046C0473046A0474FF400214D
:1015E0000C48C0470B48A047144B4FF480321A6098
:1015F000802283F810234FF48051196083F80C2364
:101600004FF48061196083F80A2303B0BDE8F08FBE
:10161000390F4000000E0E40F10B400000120E404A
:1016200000100E4000140E40B5144000450D40005F
:10163000C1144000CD144000EB0C400000E100E07C
:10164000BB0B4000FD0A4000070B4000E70C4000C8
:1016500038B504460D46064B984720B92946204622
:10166000044B984738BD29462046034B984738BD60
:10167000A90C4000210B4000250B400038B508485C
:10168000084B984710F0020F08D0074C0022074B78
:10169000D4E90001064DA847C4E9000138BD00BFE8
:1016A00030180E40B5014000F80640200000F03F21
:1016B000A51A400038B50F480F4B984710F0020F9D
:1016C00002D001220D4B1A700A4D042128460C4C01
:1016D000A04702212846A04701212846A04708210B
:1016E0002846A04710212846A04720212846A04789
:1016F00038BD00BF60180E40AD014000F706402025
:10170000B10140002DE9F04385B006460C4617466E
:10171000984608461C4B98471C4D009502AB03AAFF
:1017200029464046DFF88090C847029A42F480423A
:1017300039463046164B9847039AB5FBF2F2B2FB96
:10174000F8F239463046134B984763B2002B13DB4F
:10175000114A8021D1545B0904F01F04012202FACE
:1017600004F40E4A42F823401022394630460C4B0E
:10177000984705B0BDE8F08304F00F01094A0A4418
:1017800080211176E7E700BF390F400000A3E11187
:10179000030340002D03400000E400E000E100E00E
:1017A00035034000FCEC00E04503400010B5044662
:1017B0000648074B984724B901210648064B98472D
:1017C00010BD01210348054B984710BD6D81E7000E
:1017D0000100402000C00040250340001D034000E0
:1017E00010B504460648074B984724B9002106481F
:1017F000064B984710BD00210348054B984710BD84
:101800006D81E700010040200040014025034000B9
:101810001D03400010B504460648074B984724B9FD
:1018200000210648064B984710BD00210348054B90
:10183000984710BD6D81E700010040200000014085
:10184000250340001D03400008B5054B9847054B94
:101850009847054B98474FF40042044B5A6008BD27
:101860004D094000D91440002D06400050180E408C
:1018700000B583B001210548054B9847019001222E
:10188000044B1A7003B05DF804FB00BF00C00040B9
:101890003D0340000407402000B583B00021054807
:1018A000054B984701900122044B1A7003B05DF874
:1018B00004FB00BF000001403D0340001D07402025
:1018C00000B583B000210548054B984701900122DF
:1018D000044B1A7003B05DF804FB00BF00400140E8
:1018E0003D0340001C07402080B54E4B98474E4BAF
:1018F00098474E4B98474E4C012300222F212046FB
:101900004C4DA847002120464B4CA0474B4E0A2384
:1019100000221A213046A84700213046A047A6F5EC
:1019200080460523012218213046A8470121304670
:10193000A047434B102200214248434CA047434C50
:1019400006F5542606F56066414D4BE03C4B1022EF
:10195000002140483C4FB8473F4A1378B3FA83F31D
:101960005B09137010783D4B9847002323703CE0CF
:10197000334B102200213A48334FB847394A137885
:10198000B3FA83F35B0913701078374B9847002242
:10199000364B1A702DE02A4B1022002134482A4F72
:1019A000B847344A1378B3FA83F35B09137010789D
:1019B000314B98470022314B1A701EE0012130460E
:1019C0002F4B984700222F4B1A701AE04FF080419E
:1019D00028462B4B984700222B4B1A7015E002200B
:1019E0002A4B98472378002BB0D1204B1B78002B33
:1019F000BED1224B1B78002BCDD1224B1B78002B64
:101A0000DCD1214B1B78002BE0D1214B1B78002B24
:101A1000E5D004211F481A4B984700221C4B1A702E
:101A2000DDE700BFBD0940004D09400049184000F6
:101A300000400140051740001D0340000000014028
:101A40000C004020C029400095054000F4064020CD
:101A500000120E40CC29400020004020AD1740006D
:101A6000D82940002100402015184000F5064020EC
:101A7000E429400022004020E1174000F606402003
:101A800051164000040740201D074020DD0F400094
:101A90001C07402000100E4081F0004102E000BF12
:101AA00083F0004330B54FEA41044FEA430594EA1E
:101AB000050F08BF90EA020F1FBF54EA000C55EA59
:101AC000020C7FEA645C7FEA655C00F0E2804FEA2A
:101AD0005454D4EB5555B8BF6D420CDD2C4480EA0C
:101AE000020281EA030382EA000083EA010180EA3C
:101AF000020281EA0303362D88BF30BD11F0004F8A
:101B00004FEA01314FF4801C4CEA113102D04042BF
:101B100061EB410113F0004F4FEA03334CEA1333FA
:101B200002D0524263EB430394EA050F00F0A78012
:101B3000A4F10104D5F1200E0DDB02FA0EFC22FA0D
:101B400005F2801841F1000103FA0EF2801843FA01
:101B500005F359410EE0A5F120050EF1200E012AF2
:101B600003FA0EFC28BF4CF0020C43FA05F3C01830
:101B700051EBE37101F0004507D54FF0000EDCF1A9
:101B8000000C7EEB00006EEB0101B1F5801F1BD352
:101B9000B1F5001F0CD349085FEA30004FEA3C0C56
:101BA00004F101044FEA445212F5800F80F09A804C
:101BB000BCF1004F08BF5FEA500C50F1000041EB50
:101BC000045141EA050130BD5FEA4C0C404141EB54
:101BD000010111F4801FA4F10104E9D191F0000F7B
:101BE00004BF01460020B1FA81F308BF2033A3F1FE
:101BF0000B03B3F120020CDA0C3208DD02F1140CF5
:101C0000C2F10C0201FA0CF021FA02F10CE002F12F
:101C10001402D8BFC2F1200C01FA02F120FA0CFC28
:101C2000DCBF41EA0C019040E41AA2BF01EB045171
:101C3000294330BD6FEA04041F3C1CDA0C340EDC6F
:101C400004F11404C4F1200220FA04F001FA02F3B2
:101C500040EA030021FA04F345EA030130BDC4F170
:101C60000C04C4F1200220FA02F001FA04F340EA65
:101C70000300294630BD21FA04F0294630BD94F016
:101C8000000F83F4801306BF81F480110134013DFD
:101C90004EE77FEA645C18BF7FEA655C29D094EA6E
:101CA000050F08BF90EA020F05D054EA000C04BFEC
:101CB0001946104630BD91EA030F1EBF00210020D7
:101CC00030BD5FEA545C05D14000494128BF41F076
:101CD000004130BD14F580043CBF01F5801130BDDA
:101CE00001F0004545F0FE4141F470014FF0000065
:101CF00030BD7FEA645C1ABF194610467FEA655C16
:101D00001CBF0B46024650EA013406BF52EA0335B7
:101D100091EA030F41F4002130BD00BF90F0000FA5
:101D200004BF0021704730B54FF4806404F13204E1
:101D30004FF000054FF0000150E700BF90F0000F9A
:101D400004BF0021704730B54FF4806404F13204C1
:101D500010F0004548BF40424FF000013EE700BF91
:101D600042004FEAE2014FEA31014FEA02701FBF21
:101D700012F07F4393F07F4F81F06051704792F0F3
:101D8000000F14BF93F07F4F704730B54FF460746D
:101D900001F0004521F0004120E700BF50EA0102B8
:101DA00008BF704730B54FF000050AE050EA010265
:101DB00008BF704730B511F0004502D5404261EBD5
:101DC00041014FF4806404F132045FEA915C3FF416
:101DD000DCAE4FF003025FEADC0C18BF03325FEAAF
:101DE000DC0C18BF033202EBDC02C2F1200300FA64
:101DF00003FC20FA02F001FA03FE40EA0E0021FA89
:101E000002F11444C1E600BF70B50F4E0F4D761BB2
:101E1000B61018BF002405D0013455F8043B98478C
:101E2000A642F9D10A4E0B4D761B00F0E3FDB61029
:101E300018BF002406D0013455F8043B9847A64249
:101E4000F9D170BD70BD00BF002A4000002A4000DB
:101E5000082A4000002A4000024B13B1024800F05B
:101E600005B8704700000000791E400000230146BD
:101E70001A46184600F01EB838B50A4C0A4D641BC5
:101E8000A4100AD004F18043013B05EB8305013C1B
:101E900055F804399847002CF9D1BDE8384000F0D6
:101EA000B3BD00BF182A4000142A4000704700BF8D
:101EB000704700BF2DE9F8432C4D06462868984628
:101EC0000F469146FFF7F2FF294B1C68D4F84831C2
:101ED000002B3ED05A681F2A1CDC02F1010E76B19D
:101EE00003EB82010124C1F88890D3F88801944063
:101EF0002043022EC3F88801C1F8088123D00232A2
:101F0000C3F804E0286843F82270FFF7D1FF0020EF
:101F1000BDE8F883174B0BB34FF4C870AFF30080E4
:101F20000346D8B1D4F848210260002141600A4636
:101F3000C4F848014FF0010EC0F88811C0F88C11A8
:101F4000002EDCD0CCE7D3F88C110C43C3F88C41C5
:101F5000D5E704F5A673C4F84831BBE72868FFF756
:101F6000A7FF4FF0FF30BDE8F88300BF50044020CA
:101F7000F029400000000000000000000000000008
:101F80000000000000000000000000000000000051
:101F90000000000000000000300030003000300081
:101FA0003000300000003000300000000000000071
:101FB000000000006C006C006C006C000000000071
:101FC0000000000000000000000000000000000011
:101FD0000000280028007C00280028007C00280041
:101FE00028000000000000000000000010003C007D
:101FF00040002000100008000400780010000000DD
:10200000000000000000000000007C00A400A80008
:1020100050002800540094008800000000000000D8
:1020200000000000600090009000900060009400AC
:102030008800880070000000000000000000000020
:102040001000100010000000000000000000000060
:102050000000000000000000000000000800100068
:102060002000200020002000200020001000080098
:102070000000000000000000200010000800080020
:102080000800080008000800100020000000000000
:102090000000280010007C00100028000000000054
:1020A0000000000000000000000000000000000030
:1020B00000000000100010001000FE0010001000D2
:1020C0001000000000000000000000000000000000
:1020D00000000000000000000000000010003000C0
:1020E00020000000000000000000000000000000D0
:1020F00000007C0000000000000000000000000064
:1021000000000000000000000000000000000000CF
:10211000000030003000000000000000000000005F
:1021200000000800080010001000200020004000FF
:1021300040000000000000000000000000007800E7
:1021400084008C009400A400C40084007800000087
:1021500000000000000000000000100030005000EF
:1021600010001000100010007C00000000000000B3
:10217000000000000000700088000800100020002F
:1021800040008000F8000000000000000000000097
:102190000000700088000800300008000800880077
:1021A00070000000000000000000000000000800B7
:1021B0001800280048008800FC0008000800000003
:1021C0000000000000000000000078008000800097
:1021D000F000080008000800F00000000000000007
:1021E000000000000000300040008000F000880087
:1021F000880088007000000000000000000000005F
:102200000000F8000800100010002000200040002E
:10221000400000000000000000000000000070000E
:102220008800880070008800880088007000000026
:10223000000000000000000000007000880088001E
:102240008800780008001000600000000000000016
:10225000000000000000000000003000300000001E
:10226000000030003000000000000000000000000E
:1022700000000000000030003000000000003000CE
:10228000300060004000000000000000000000007E
:10229000080010002000400020001000080000008E
:1022A000000000000000000000000000000000002E
:1022B0007C0000007C000000000000000000000026
:1022C0000000000000000000400020001000080096
:1022D000100020004000000000000000000000008E
:1022E000000030004800080010002000000000003E
:1022F00020000000000000000000000000000000BE
:102300003C0042009A00AA00AA00BE0080007800AB
:10231000000000000000000000001000280028005D
:1023200044007C0044004400440000000000000021
:10233000000000000000F80084008400F800840021
:1023400084008400F800000000000000000000008D
:1023500000003C00400080008000800080004000C1
:102360003C00000000000000000000000000F00041
:10237000880084008400840084008800F00000004D
:1023800000000000000000000000F8008000800055
:10239000F000800080008000F800000000000000D5
:1023A000000000000000F80080008000F8008000BD
:1023B000800080008000000000000000000000009D
:1023C00000003C004000800080009C00840044002D
:1023D000380000000000000000000000000088003D
:1023E00088008800F80088008800880088000000C5
:1023F00000000000000000000000F80020002000A5
:102400002000200020002000F80000000000000054
:10241000000000000000F8000800080008000800A4
:1024200008000800F00000000000000000000000AC
:102430000000840088009000A000D0008800840084
:102440008400000000000000000000000000800088
:10245000800080008000800080008000FC00000080
:10246000000000000000000000008400CC00CC0050
:10247000B400B40084008400840000000000000068
:102480000000000000008400C400C400A400A400F8
:10249000940094008C000000000000000000000088
:1024A000000078008400840084008400840084009C
:1024B0007800000000000000000000000000F800AC
:1024C000840084008400F800800080008000000008
:1024D000000000000000000000007800840084007C
:1024E000840084008400840078002000180000002C
:1024F000000000000000F800840084008400F80060
:10250000880084008400000000000000000000003B
:1025100000007C00800080006000180004000400BF
:10252000F800000000000000000000000000F800BB
:1025300020002000200020002000200020000000BB
:1025400000000000000000000000840084008400FF
:1025500084008400840084007800000000000000F3
:10256000000000000000840084008400480048004F
:1025700048003000300000000000000000000000B3
:1025800000008800A800A800A800A800A80050002B
:102590005000000000000000000000000000880063
:1025A00088005000200020005000880088000000B3
:1025B0000000000000000000000088008800880083
:1025C000500050002000200020000000000000000B
:1025D000000000000000FC000400080010002000C3
:1025E00040008000FC00000000000000000000002F
:1025F00070004000400040004000400040004000AB
:10260000400040007000000000000000400040005A
:10261000200020002000100010001000080008001A
:10262000000000000000000038000800080008005A
:102630000800080008000800080008003800000032
:10264000000000001000280044000000000000000E
:10265000000000000000000000000000000000007A
:10266000000000000000000000000000000000006A
:102670003800000000000000000000000000200002
:10268000100000000000000000000000000000003A
:1026900000000000000000000000000000007000CA
:1026A00008000800780088007C000000000000009E
:1026B00000000000800080008000F800840084009A
:1026C00084008400F800000000000000000000000A
:1026D0000000000000007800800080008000800082
:1026E000780000000000000000000000040004006A
:1026F00004007C008400840084008C0074000000CE
:102700000000000000000000000000000000780051
:102710008400FC00800080007C00000000000000BD
:10272000000000001C0020002000FC002000200011
:1027300020002000FC00000000000000000000005D
:102740000000000000007C008400840084008400FD
:102750007C00040078000000000000008000800081
:102760008000B800C400840084008400840000005D
:1027700000000000000000000000100000007000D9
:1027800010001000100010007C000000000000008D
:1027900000000000000008000000780008000800A9
:1027A0000800080008000800080070000000000091
:1027B00080008000800088009000A000D000880089
:1027C000880000000000000000000000E000200081
:1027D000200020002000200020002000F800000041
:1027E0000000000000000000000000000000A40045
:1027F000FC00A400A400A400A4000000000000004D
:1028000000000000000000000000B800C4008400C8
:10281000840084008400000000000000000000002C
:102820000000000000007800840084008400840020
:102830007800000000000000000000000000000020
:102840000000B800C400840084008400F800800008
:1028500080000000000000000000000000007C007C
:1028600084008400840084007C00040004000000D4
:1028700000000000000000000000D80060004000E0
:1028800040004000F00000000000000000000000D8
:1028900000000000000078008000400030000800C8
:1028A000F000000000000000000000000000000038
:1028B0002000FC0020002000200020001C00000060
:1028C0000000000000000000000000000000880080
:1028D00088008800880088007C000000000000005C
:1028E000000000000000000000008400840084005C
:1028F0004800480030000000000000000000000018
:102900000000000000008800A800A800A800A8009F
:102910005000000000000000000000000000000067
:1029200000008800500020002000500088000000B7
:102930000000000000000000000000000000840013
:1029400084004800480030001000200040000000D3
:1029500000000000000000000000F8000800100067
:1029600020004000F800000000000000000000000F
:102970001000200020001000200020001000200087
:1029800020001000000000000000000010001000F7
:1029900010001000000000001000100010001000D7
:1029A00000000000000000002000100010002000C7
:1029B0001000100020001000100020000000000097
:1029C000416775617264616E646F0000426F74618B
:1029D0006F20312020200000426F74616F20322070
:1029E00020200000426F74616F20332020202000DF
:1029F00028004020F8B500BFF8BC08BC9E467047D0
:102A0000591E400065014000F8B500BFF8BC08BC85
:082A10009E46704741014000A1
:102A1800BFF35F8F0138FBD1704700000000000052
:102A2800781F40000A0E207D0100000000093D00CB
:102A38000101010000000000000000001403402014
:102A48007C034020E4034020000000000000000058
:102A5800000000000000000000000000000000006E
:102A6800000000000000000000000000000000005E
:102A7800000000000000000000000000000000004E
:102A8800000000000000000000000000000000003E
:102A9800000000000000000000000000000000002E
:102AA800000000000000000000000000000000001E
:102AB800000000000000000000000000000000000E
:102AC80000000000000000000000000000000000FE
:102AD80000000000000000000000000000000000EE
:102AE80001000000000000000E33CDAB34126DE68B
:102AF800ECDE05000B0000000000000000000000F4
:102B080000000000000000000000000000000000BD
:102B180000000000000000000000000000000000AD
:102B2800000000000000000000000000000000009D
:102B3800000000000000000000000000000000008D
:042E680024074020DB
:040000050040125550
:00000001FF
